:100000000C945D000C9485000C9485000C94850084
:100010000C9485000C9485000C9485000C9485004C
:100020000C9485000C9485000C9485000C9485003C
:100030000C9485000C9485000C9485000C9485002C
:100040000C94AF020C9485000C947D020C94570222
:100050000C9485000C9485000C9485000C9485000C
:100060000C9485000C9485000000000024002700FB
:100070002A0000000000250028002B0004040404CE
:100080000404040402020202020203030303030342
:10009000010204081020408001020408102001021F
:1000A00004081020000000080002010000030407FB
:1000B0000000000000000000EC0311241FBECFEF81
:1000C000D8E0DEBFCDBF11E0A0E0B1E0E6E8F8E0A7
:1000D00002C005900D92A631B107D9F721E0A6E143
:1000E000B1E001C01D92AD3BB207E1F710E0CDE5F4
:1000F000D0E004C02197FE010E943B04CC35D1071B
:10010000C9F70E94F9020C9441040C940000E6EA3D
:10011000F0E02491E2E9F0E09491EEE7F0E0E49180
:10012000EE23C9F0222339F0233001F1A8F4213065
:1001300019F1223029F1F0E0EE0FFF1FEE58FF4FCA
:10014000A591B4912FB7F894EC91811126C09095A8
:100150009E239C932FBF08952730A9F02830C9F023
:10016000243049F7209180002F7D03C0209180002A
:100170002F7720938000DFCF24B52F7724BDDBCFEE
:1001800024B52F7DFBCF2091B0002F772093B000B6
:10019000D2CF2091B0002F7DF9CF9E2BDACFAF9236
:1001A000BF92CF92DF92EF92FF920F931F93CF9364
:1001B000DF936C017B018B01040F151FEB015E01C6
:1001C000AE18BF08C017D10759F06991D601ED915B
:1001D000FC910190F081E02DC6010995892B79F7FA
:1001E000C501DF91CF911F910F91FF90EF90DF90AC
:1001F000CF90BF90AF900895FC01538D448D252F73
:1002000030E0842F90E0821B930B541710F0CF96B0
:10021000089501970895FC01918D828D981761F0E2
:10022000A28DAE0FBF2FB11D5D968C91928D9F5FF9
:100230009F73928F90E008958FEF9FEF0895FC01D8
:10024000918D828D981731F0828DE80FF11D858D8B
:1002500090E008958FEF9FEF0895FC01918D228D1E
:10026000892F90E0805C9F4F821B91098F739927A3
:10027000089580E291E00E942D0121E0892B09F48C
:1002800020E0822F089580E090E0892B29F00E94E1
:10029000390181110C9400000895FC01A48DA80F70
:1002A000B92FB11DA35ABF4F2C91848D90E00196B8
:1002B0008F739927848FA689B7892C93A089B189D8
:1002C0008C91837080648C93938D848D981306C079
:1002D0000288F389E02D80818F7D80830895EF92DD
:1002E000FF920F931F93CF93DF93EC0181E0888FF0
:1002F0009B8D8C8D98131AC0E889F989808185FFC0
:1003000015C09FB7F894EE89FF896083E889F98961
:1003100080818370806480839FBF81E090E0DF9163
:10032000CF911F910F91FF90EF900895F62E0B8DB6
:1003300010E00F5F1F4F0F731127E02E8C8D8E1171
:100340000CC00FB607FCFACFE889F989808185FFD8
:10035000F5CFCE010E944D01F1CFEB8DEC0FFD2FBB
:10036000F11DE35AFF4FF0829FB7F8940B8FEA8993
:10037000FB8980818062CFCFCF93DF93EC01888DA2
:100380008823B9F0AA89BB89E889F9898C9185FD10
:1003900003C0808186FD0DC00FB607FCF7CF8C919E
:1003A00085FFF2CF808185FFEDCFCE010E944D0108
:1003B000E9CFDF91CF9108953FB7F89480911B0169
:1003C00090911C01A0911D01B0911E0126B5A89B22
:1003D00005C02F3F19F00196A11DB11D3FBFBA2FD7
:1003E000A92F982F8827BC01CD01620F711D811D97
:1003F000911D42E0660F771F881F991F4A95D1F71C
:1004000008958F929F92AF92BF920F931F93CF93B5
:10041000DF93CDB7DEB7A1970FB6F894DEBF0FBE5E
:10042000CDBF19A2423008F44AE08E010F5D1F4F84
:10043000842E912CB12CA12CA50194010E941904A9
:10044000E62FB901CA01EA3044F5E05DD801EE9328
:100450008D01232B242B252B79F790E080E010973A
:1004600069F0FD0101900020E9F73197AF014A1BC7
:100470005B0BBD0180E291E00E94CF00A1960FB618
:10048000F894DEBF0FBECDBFDF91CF911F910F91CA
:10049000BF90AF909F908F900895E95CD7CF42E0D6
:1004A00050E062E171E080E291E00C94CF001F9295
:1004B0000F920FB60F9211242F933F934F935F9398
:1004C0006F937F938F939F93AF93BF93EF93FF931C
:1004D00080E291E00E944D01FF91EF91BF91AF91B9
:1004E0009F918F917F916F915F914F913F912F914C
:1004F0000F900FBE0F901F9018951F920F920FB67E
:100500000F9211242F938F939F93EF93FF93E0917A
:100510003001F09131018081E0913601F091370195
:1005200082FD1BC09081809139018F5F8F73209174
:100530003A01821741F0E0913901F0E0E05EFE4FB0
:10054000958F80933901FF91EF919F918F912F911A
:100550000F900FBE0F901F9018958081F4CF1F92BF
:100560000F920FB60F9211242F933F938F939F9367
:10057000AF93BF938091170190911801A091190139
:10058000B0911A013091160123E0230F2D3758F551
:100590000196A11DB11D2093160180931701909320
:1005A0001801A0931901B0931A0180911B01909139
:1005B0001C01A0911D01B0911E010196A11DB11D4C
:1005C00080931B0190931C01A0931D01B0931E0109
:1005D000BF91AF919F918F913F912F910F900FBE3F
:1005E0000F901F90189526E8230F0296A11DB11DAC
:1005F000D2CF789484B5826084BD84B5816084BD97
:1006000085B5826085BD85B5816085BD80916E00B0
:10061000816080936E0010928100809181008260E1
:10062000809381008091810081608093810080911E
:1006300080008160809380008091B100846080930D
:10064000B1008091B00081608093B00080917A0009
:10065000846080937A0080917A00826080937A002F
:1006600080917A00816080937A0080917A0080681E
:1006700080937A001092C100E0913001F091310135
:1006800082E08083E0912C01F0912D011082E091B5
:100690002E01F0912F018FEC808310923801E091B0
:1006A0003401F091350186E08083E0913201F091D0
:1006B0003301808180618083E0913201F0913301C8
:1006C000808188608083E0913201F09133018081E4
:1006D00080688083E0913201F091330180818F7DC9
:1006E0008083E2E9F0E02491EEE7F0E08491882352
:1006F00099F090E0880F991FFC01E859FF4FA591F0
:10070000B491FC01EE58FF4F859194918FB7F89406
:10071000EC91E22BEC938FBF12E4C0E0D0E001E05B
:1007200010937C0080917A00806480937A0080919D
:100730007A0086FDFCCF80917800C0907900DC2C97
:10074000C82E2BE0C216D104C4F10D2C000CEE080B
:10075000FF0880911F018823D9F110921F0180E0CA
:100760000E9487004AE0C701B6010E9401020E9470
:100770004F020E94DC014B015C0182E3C82ED12CA8
:10078000E12CF12C0E94DC01681979098A099B0986
:10079000683E734081059105A8F381E0C81AD1082D
:1007A000E108F10828EE820E23E0921EA11CB11C84
:1007B000C114D104E104F10429F7209709F4B0CF62
:1007C0000E943901882309F4ABCF0E940000A8CF12
:1007D00000931F0181E0C4CFE0E2F1E013821282B6
:1007E00088EE93E0A0E0B0E084839583A683B7838E
:1007F00084E091E09183808385EC90E09587848705
:1008000084EC90E09787868780EC90E0918B808BDA
:1008100081EC90E0938B828B82EC90E0958B848BC3
:1008200086EC90E0978B868B118E128E138E148E31
:100830000895A1E21A2EAA1BBB1BFD010DC0AA1F21
:10084000BB1FEE1FFF1FA217B307E407F50720F039
:10085000A21BB30BE40BF50B661F771F881F991FB4
:100860001A9469F760957095809590959B01AC01FD
:10087000BD01CF010895EE0FFF1F0590F491E02D0B
:060880000994F894FFCF7B
:10088600000000006F01CF00FC00BC012D010B0130
:060896001F010D0A000025
:00000001FF
